{
  "_format": "hh-sol-artifact-1",
  "contractName": "BTCSigner",
  "sourceName": "contracts/BTCSigner.sol",
  "abi": [
    {
      "inputs": [],
      "stateMutability": "nonpayable",
      "type": "constructor"
    },
    {
      "inputs": [
        {
          "internalType": "bytes",
          "name": "contextOrHash",
          "type": "bytes"
        }
      ],
      "name": "signBTCTransaction",
      "outputs": [
        {
          "internalType": "bytes",
          "name": "sigs",
          "type": "bytes"
        }
      ],
      "stateMutability": "view",
      "type": "function"
    },
    {
      "inputs": [
        {
          "internalType": "bytes",
          "name": "contextOrHash",
          "type": "bytes"
        },
        {
          "internalType": "bytes",
          "name": "signature",
          "type": "bytes"
        }
      ],
      "name": "verifySignature",
      "outputs": [
        {
          "internalType": "bool",
          "name": "flag",
          "type": "bool"
        }
      ],
      "stateMutability": "view",
      "type": "function"
    }
  ],
  "bytecode": "0x60806040523480156200001157600080fd5b5060006200003b6020604051806020016040528060008152506200008960201b620002951760201c565b9050600080620000586004846200018160201b620003841760201c565b9150915080600090816200006d91906200050c565b5081600190816200007f91906200050c565b5050505062000a77565b606060008073010000000000000000000000000000000000000173ffffffffffffffffffffffffffffffffffffffff168585604051602001620000ce92919062000693565b604051602081830303815290604052604051620000ec919062000709565b600060405180830381855afa9150503d806000811462000129576040519150601f19603f3d011682016040523d82523d6000602084013e6200012e565b606091505b50915091508162000176576040517f08c379a00000000000000000000000000000000000000000000000000000000081526004016200016d9062000783565b60405180910390fd5b809250505092915050565b60608060008073010000000000000000000000000000000000000573ffffffffffffffffffffffffffffffffffffffff168686604051602001620001c792919062000825565b604051602081830303815290604052604051620001e5919062000709565b600060405180830381855afa9150503d806000811462000222576040519150601f19603f3d011682016040523d82523d6000602084013e62000227565b606091505b5091509150816200026f576040517f08c379a00000000000000000000000000000000000000000000000000000000081526004016200026690620008a9565b60405180910390fd5b80806020019051810190620002859190620009f2565b9350935050509250929050565b600081519050919050565b7f4e487b7100000000000000000000000000000000000000000000000000000000600052604160045260246000fd5b7f4e487b7100000000000000000000000000000000000000000000000000000000600052602260045260246000fd5b600060028204905060018216806200031457607f821691505b6020821081036200032a5762000329620002cc565b5b50919050565b60008190508160005260206000209050919050565b60006020601f8301049050919050565b600082821b905092915050565b600060088302620003947fffffffffffffffffffffffffffffffffffffffffffffffffffffffffffffffff8262000355565b620003a0868362000355565b95508019841693508086168417925050509392505050565b6000819050919050565b6000819050919050565b6000620003ed620003e7620003e184620003b8565b620003c2565b620003b8565b9050919050565b6000819050919050565b6200040983620003cc565b620004216200041882620003f4565b84845462000362565b825550505050565b600090565b6200043862000429565b62000445818484620003fe565b505050565b5b818110156200046d57620004616000826200042e565b6001810190506200044b565b5050565b601f821115620004bc57620004868162000330565b620004918462000345565b81016020851015620004a1578190505b620004b9620004b08562000345565b8301826200044a565b50505b505050565b600082821c905092915050565b6000620004e160001984600802620004c1565b1980831691505092915050565b6000620004fc8383620004ce565b9150826002028217905092915050565b620005178262000292565b67ffffffffffffffff8111156200053357620005326200029d565b5b6200053f8254620002fb565b6200054c82828562000471565b600060209050601f8311600181146200058457600084156200056f578287015190505b6200057b8582620004ee565b865550620005eb565b601f198416620005948662000330565b60005b82811015620005be5784890151825560018201915060208501945060208101905062000597565b86831015620005de5784890151620005da601f891682620004ce565b8355505b6001600288020188555050505b505050505050565b620005fe81620003b8565b82525050565b600082825260208201905092915050565b60005b838110156200063557808201518184015260208101905062000618565b60008484015250505050565b6000601f19601f8301169050919050565b60006200065f8262000292565b6200066b818562000604565b93506200067d81856020860162000615565b620006888162000641565b840191505092915050565b6000604082019050620006aa6000830185620005f3565b8181036020830152620006be818462000652565b90509392505050565b600081905092915050565b6000620006df8262000292565b620006eb8185620006c7565b9350620006fd81856020860162000615565b80840191505092915050565b6000620007178284620006d2565b915081905092915050565b600082825260208201905092915050565b7f72616e646f6d42797465733a206661696c656400000000000000000000000000600082015250565b60006200076b60138362000722565b9150620007788262000733565b602082019050919050565b600060208201905081810360008301526200079e816200075c565b9050919050565b7f4e487b7100000000000000000000000000000000000000000000000000000000600052602160045260246000fd5b60098110620007e857620007e7620007a5565b5b50565b6000819050620007fb82620007d4565b919050565b60006200080d82620007eb565b9050919050565b6200081f8162000800565b82525050565b60006040820190506200083c600083018562000814565b818103602083015262000850818462000652565b90509392505050565b7f67656e207369676e696e67206b6579706169723a206661696c65640000000000600082015250565b600062000891601b8362000722565b91506200089e8262000859565b602082019050919050565b60006020820190508181036000830152620008c48162000882565b9050919050565b6000604051905090565b600080fd5b600080fd5b600080fd5b600080fd5b620008f48262000641565b810181811067ffffffffffffffff821117156200091657620009156200029d565b5b80604052505050565b60006200092b620008cb565b9050620009398282620008e9565b919050565b600067ffffffffffffffff8211156200095c576200095b6200029d565b5b620009678262000641565b9050602081019050919050565b60006200098b62000985846200093e565b6200091f565b905082815260208101848484011115620009aa57620009a9620008e4565b5b620009b784828562000615565b509392505050565b600082601f830112620009d757620009d6620008df565b5b8151620009e984826020860162000974565b91505092915050565b6000806040838503121562000a0c5762000a0b620008d5565b5b600083015167ffffffffffffffff81111562000a2d5762000a2c620008da565b5b62000a3b85828601620009bf565b925050602083015167ffffffffffffffff81111562000a5f5762000a5e620008da565b5b62000a6d85828601620009bf565b9150509250929050565b610ddb8062000a876000396000f3fe608060405234801561001057600080fd5b50600436106100365760003560e01c806331f591221461003b578063d31191ed1461006b575b600080fd5b610055600480360381019061005091906105e4565b61009b565b6040516100629190610677565b60405180910390f35b61008560048036038101906100809190610692565b6101a3565b604051610092919061075a565b60405180910390f35b600080600073010000000000000000000000000000000000000773ffffffffffffffffffffffffffffffffffffffff166004600187876040516020016100e49493929190610923565b60405160208183030381529060405260405161010091906109cc565b600060405180830381855afa9150503d806000811461013b576040519150601f19603f3d011682016040523d82523d6000602084013e610140565b606091505b509150915081610185576040517f08c379a000000000000000000000000000000000000000000000000000000000815260040161017c90610a2f565b60405180910390fd5b808060200190518101906101999190610a7b565b9250505092915050565b606060008073010000000000000000000000000000000000000673ffffffffffffffffffffffffffffffffffffffff1660046000866040516020016101ea93929190610aa8565b60405160208183030381529060405260405161020691906109cc565b600060405180830381855afa9150503d8060008114610241576040519150601f19603f3d011682016040523d82523d6000602084013e610246565b606091505b50915091508161028b576040517f08c379a000000000000000000000000000000000000000000000000000000000815260040161028290610b4c565b60405180910390fd5b8092505050919050565b606060008073010000000000000000000000000000000000000173ffffffffffffffffffffffffffffffffffffffff1685856040516020016102d8929190610b85565b6040516020818303038152906040526040516102f491906109cc565b600060405180830381855afa9150503d806000811461032f576040519150601f19603f3d011682016040523d82523d6000602084013e610334565b606091505b509150915081610379576040517f08c379a000000000000000000000000000000000000000000000000000000000815260040161037090610c01565b60405180910390fd5b809250505092915050565b60608060008073010000000000000000000000000000000000000573ffffffffffffffffffffffffffffffffffffffff1686866040516020016103c8929190610c21565b6040516020818303038152906040526040516103e491906109cc565b600060405180830381855afa9150503d806000811461041f576040519150601f19603f3d011682016040523d82523d6000602084013e610424565b606091505b509150915081610469576040517f08c379a000000000000000000000000000000000000000000000000000000000815260040161046090610c9d565b60405180910390fd5b8080602001905181019061047d9190610d2d565b9350935050509250929050565b6000604051905090565b600080fd5b600080fd5b600080fd5b600080fd5b6000601f19601f8301169050919050565b7f4e487b7100000000000000000000000000000000000000000000000000000000600052604160045260246000fd5b6104f1826104a8565b810181811067ffffffffffffffff821117156105105761050f6104b9565b5b80604052505050565b600061052361048a565b905061052f82826104e8565b919050565b600067ffffffffffffffff82111561054f5761054e6104b9565b5b610558826104a8565b9050602081019050919050565b82818337600083830152505050565b600061058761058284610534565b610519565b9050828152602081018484840111156105a3576105a26104a3565b5b6105ae848285610565565b509392505050565b600082601f8301126105cb576105ca61049e565b5b81356105db848260208601610574565b91505092915050565b600080604083850312156105fb576105fa610494565b5b600083013567ffffffffffffffff81111561061957610618610499565b5b610625858286016105b6565b925050602083013567ffffffffffffffff81111561064657610645610499565b5b610652858286016105b6565b9150509250929050565b60008115159050919050565b6106718161065c565b82525050565b600060208201905061068c6000830184610668565b92915050565b6000602082840312156106a8576106a7610494565b5b600082013567ffffffffffffffff8111156106c6576106c5610499565b5b6106d2848285016105b6565b91505092915050565b600081519050919050565b600082825260208201905092915050565b60005b838110156107155780820151818401526020810190506106fa565b60008484015250505050565b600061072c826106db565b61073681856106e6565b93506107468185602086016106f7565b61074f816104a8565b840191505092915050565b600060208201905081810360008301526107748184610721565b905092915050565b7f4e487b7100000000000000000000000000000000000000000000000000000000600052602160045260246000fd5b600981106107bc576107bb61077c565b5b50565b60008190506107cd826107ab565b919050565b60006107dd826107bf565b9050919050565b6107ed816107d2565b82525050565b7f4e487b7100000000000000000000000000000000000000000000000000000000600052602260045260246000fd5b6000600282049050600182168061083a57607f821691505b60208210810361084d5761084c6107f3565b5b50919050565b60008190508160005260206000209050919050565b6000815461087581610822565b61087f81866106e6565b9450600182166000811461089a57600181146108b0576108e3565b60ff1983168652811515602002860193506108e3565b6108b985610853565b60005b838110156108db578154818901526001820191506020810190506108bc565b808801955050505b50505092915050565b600082825260208201905092915050565b50565b600061090d6000836108ec565b9150610918826108fd565b600082019050919050565b600060a08201905061093860008301876107e4565b818103602083015261094a8186610868565b9050818103604083015261095e8185610721565b9050818103606083015261097181610900565b905081810360808301526109858184610721565b905095945050505050565b600081905092915050565b60006109a6826106db565b6109b08185610990565b93506109c08185602086016106f7565b80840191505092915050565b60006109d8828461099b565b915081905092915050565b7f7665726966793a206661696c6564000000000000000000000000000000000000600082015250565b6000610a19600e836108ec565b9150610a24826109e3565b602082019050919050565b60006020820190508181036000830152610a4881610a0c565b9050919050565b610a588161065c565b8114610a6357600080fd5b50565b600081519050610a7581610a4f565b92915050565b600060208284031215610a9157610a90610494565b5b6000610a9f84828501610a66565b91505092915050565b6000608082019050610abd60008301866107e4565b8181036020830152610acf8185610868565b90508181036040830152610ae38184610721565b90508181036060830152610af681610900565b9050949350505050565b7f7369676e3a206661696c65640000000000000000000000000000000000000000600082015250565b6000610b36600c836108ec565b9150610b4182610b00565b602082019050919050565b60006020820190508181036000830152610b6581610b29565b9050919050565b6000819050919050565b610b7f81610b6c565b82525050565b6000604082019050610b9a6000830185610b76565b8181036020830152610bac8184610721565b90509392505050565b7f72616e646f6d42797465733a206661696c656400000000000000000000000000600082015250565b6000610beb6013836108ec565b9150610bf682610bb5565b602082019050919050565b60006020820190508181036000830152610c1a81610bde565b9050919050565b6000604082019050610c3660008301856107e4565b8181036020830152610c488184610721565b90509392505050565b7f67656e207369676e696e67206b6579706169723a206661696c65640000000000600082015250565b6000610c87601b836108ec565b9150610c9282610c51565b602082019050919050565b60006020820190508181036000830152610cb681610c7a565b9050919050565b6000610cd0610ccb84610534565b610519565b905082815260208101848484011115610cec57610ceb6104a3565b5b610cf78482856106f7565b509392505050565b600082601f830112610d1457610d1361049e565b5b8151610d24848260208601610cbd565b91505092915050565b60008060408385031215610d4457610d43610494565b5b600083015167ffffffffffffffff811115610d6257610d61610499565b5b610d6e85828601610cff565b925050602083015167ffffffffffffffff811115610d8f57610d8e610499565b5b610d9b85828601610cff565b915050925092905056fea264697066735822122073df3e1b3e7be008648f3965284aabacb7f27a8e4790ae6f3f7924189f409a8f64736f6c63430008120033",
  "linkReferences": {},
  "deployedLinkReferences": {}
}